:10000000FEC2C9C717C316C315C322C813C312C380
:1000100011C310C30FC30EC30DC30CC30BC30AC35C
:1000200009C308C3EAC81EC905C304C303C302C386
:1000300001C300C38EC482C403C593C401C555C4A3
:100040009BC4A2C4A3C4FCC4FBC4FAC4F9C4F8C4CE
:10005000F7C4F6C4F5C49CC4B2C4E3C4EBC4B3C4CF
:10006000E9C4D7C4C2C4C5C4CCC4E4C4E3C4E2C4B4
:10007000E1C4E0C4DFC4DEC4DDC4CBC4D2C400002C
:1000800000000000000000000006141CF01CF0142A
:100090000000000005E01FE0F01F00000000000568
:1000A000E02FE0F02F000000000005E07DE0F07D93
:1000B000000000000005E07AE0F07A000000000097
:1000C00005E06CE0F06C000000000005E069E0F085
:1000D0006900000000000366F066000000000000F8
:1000E00000030DF00D00000000000000035AF05A5C
:1000F000000000000000000358F05800000000005D
:100100000000061412F012F0140000000006145A49
:10011000F05AF0140000000005E071E0F0710000FA
:100120000000000305F005000000000000000306C9
:10013000F006000000000000000304F004000000CE
:1001400000000000030CF00C0000000000000003A1
:1001500003F00300000000000000030BF00B0000A0
:1001600000000000000383F0830000000000000096
:10017000030AF00A000000000000000301F0010083
:100180000000000000000309F0090000000000006A
:10019000000378F078000000000000000307F0077B
:1001A000000000000000000376F076000000000070
:1001B0000000031400000000000000000003F01421
:1001C000000000000000000001110000000000001D
:1001D00000000003F01100000000000000000329EF
:1001E000F02900000000000000065916F016F05932
:1001F00000000000065952F052F0590000000006BD
:100200005926F026F05900000000065925F025F087
:10021000590000000006592EF02EF0590000000091
:1002200006593DF03DF059000000000352F0520025
:10023000000000000000065946F046F0590000009A
:1002400000065945F045F0590000000006593EF0FF
:100250003EF05900000000065955F055F0590000D5
:1002600000000341F04100000000000000034EF0D8
:100270004E000000000000000349F04900000000AB
:10028000000000034AF04A0000000000000003459F
:10029000F045000000000000000316F0160000000A
:1002A00000000000031EF01E00000000000000031C
:1002B00026F026000000000000000325F0250000C5
:1002C0000000000000032EF02E00000000000000DF
:1002D0000336F03600000000000000033DF03D0052
:1002E000000000000000033EF03E0000000000009F
:1002F000000346F0460000000000000006594CF0E4
:100300004CF05900000000034CF04C0000000000CD
:100310000000065941F041F059000000000355F07B
:100320005500000000000000065949F049F059004E
:1003300000000006594AF04AF05900000000061279
:100340001EF01EF0120000000006121CF01CF0123D
:1003500000000000061232F032F012000000000629
:100360001221F021F01200000000061223F023F009
:100370001200000000061224F024F0120000000019
:1003800006122BF02BF01200000000061234F0349D
:10039000F01200000000061233F033F012000000EB
:1003A00000061243F043F0120000000006123BF07A
:1003B0003BF01200000000061242F042F012000072
:1003C000000006124BF04BF0120000000006123A3B
:1003D000F03AF01200000000061231F031F0120085
:1003E000000000061244F044F01200000000061263
:1003F0004DF04DF01200000000061215F015F0123D
:100400000000000006122DF02DF012000000000682
:10041000121BF01BF0120000000006122CF02CF052
:10042000120000000006123CF03CF0120000000038
:1004300006122AF02AF0120000000006121DF01D1C
:10044000F01200000000061222F022F0120000005C
:1004500000061235F035F0120000000006121AF006
:100460001AF012000000000354F0540000000000D5
:100470000000035DF05D00000000000000035BF081
:100480005B00000000000000061236F036F012009B
:1004900000000006124EF04EF0120000000006129E
:1004A0000EF00EF01200000000031CF01C00000013
:1004B000000000000332F0320000000000000003E2
:1004C00021F021000000000000000323F0230000C1
:1004D00000000000000324F02400000000000000E1
:1004E000032BF02B000000000000000334F0340068
:1004F0000000000000000333F033000000000000A3
:10050000000343F04300000000000000033BF03B09
:10051000000000000000000342F042000000000064
:100520000000034BF04B00000000000000033AF015
:100530003A000000000000000331F031000000002C
:100540000000000344F04400000000000000034DE0
:10055000F04D000000000000000315F01500000041
:1005600000000000032DF02D00000000000000033B
:100570001BF01B00000000000000032CF02C00000A
:100580000000000000033CF03C0000000000000000
:10059000032AF02A00000000000000031DF01D00E7
:1005A0000000000000000322F02200000000000014
:1005B000000335F03500000000000000031AF01AB7
:1005C00000000000000000061254F054F012000079
:1005D000000006125DF05DF0120000000006125BE4
:1005E000F05BF01200000000030EF00E00000000AF
:1005F00000000005E071E0F071000000000011242F
:100600001FBECFEFD4E0DEBFCDBF11E0A0E0B1E070
:10061000E4EEF2E102C005900D92A830B107D9F7DF
:1006200022E0A8E0B1E001C01D92A035B207E1F7D9
:100630002DD056C6E5CCFC01208181E090E0062E4D
:1006400001C0880F0A94EAF7442319F0282B20836D
:1006500008958095822380830895F89480E68AB96E
:100660008BB90895F89480E28AB98BB90895F8940B
:100670001AB81BB878940895F89484E88AB98BB9AD
:100680000895F89480E88AB98BB90895CF93DF93E1
:10069000CDB7DEB7A3970FB6F894DEBF0FBECDBFC0
:1006A00088E0E0E0F1E0DE011B9601900D928A9572
:1006B000E1F71BA21AA219A218A21F8E1E8E1D8E70
:1006C0001C8E1B8E1A8E198E188E1F8A1E8A1D8AEA
:1006D0001C8A1B8AFE0131968AE0DF011D928A95F1
:1006E000E9F78FE087B985B1829586958695837005
:1006F0008BA38BA1E80FF11DE80FF11D8285938577
:1007000064D534D418B8B8DF47E062E08BE290E0FB
:10071000FFD3B7DF0FEF27E042E06BE270E089E242
:1007200090E06AD38FEF8D8FBFEF29E688E1B1505B
:1007300020408040E1F700C000008FDF2AEF46E054
:1007400065E08BE290E0D9D287E088B9789440E008
:1007500062E088E290E06FDF8ADF9C8D8F8D9817D2
:1007600008F481C0898D8130A9F486DF47E062E01A
:100770008BE290E0CDD385DF0DEE27E042E06BE227
:1007800070E089E290E038D372DF8DEE8D8F898D35
:100790008F5F898F49D4882309F454C081E08B8FFF
:1007A0004CD48AA38AA18A3F61F028F48823A9F156
:1007B0008A3AC9F532C08E3F01F178F58C3F99F540
:1007C0002CC0898D8230A1F457DF47E062E08BE2D4
:1007D00090E09ED356DF0A8D27E042E06BE270E0A6
:1007E00089E290E009D38A8D8D8F898D8F5F898F03
:1007F000898D833009F5198E1FC03EDF47E062E026
:100800008BE290E085D33DDF0D8D27E042E06BE287
:1008100070E089E290E0F0D20FC0898D833061F4FE
:1008200082E0898F09C019DF2AA146E065E08BE2EA
:1008300090E063D28AA18E8F1ADF41E061E088E206
:1008400090E0F9DE39D5882371F03FD58AA38AA1DB
:10085000BE016F5F7F4F7BD48F8F1C8E41E060E0C5
:1008600088E290E0E8DE9C8D8F8D981738F55BD498
:10087000811124C09FE7A8E3B1E09150A040B040AF
:10088000E1F700C00000E9DE8C8DE1E0F0E0EC0F64
:10089000FD1FE80FF11D208146E065E08BE290E04E
:1008A0002CD28C8DE1E0F0E0EC0FFD1FE80FF11D84
:1008B00080818E8F8C8D8F5F8C8FD9DE11E033D449
:1008C000882309F44ACF38D489A3C7DE89A187FFDA
:1008D0006AC089A190E0FC01ED5EF109E231F10509
:1008E00008F0AEC0E65EFF4F09942FE788E391E081
:1008F000215080409040E1F700C000002AEF46E020
:1009000065E08BE290E0F9D1AFE7B8E321E0A150D8
:10091000B0402040E1F700C000002BEA46E065E06F
:100920008BE290E0EAD18FE798E3A1E0815090401C
:10093000A040E1F700C0000023E87DC0BFE728E346
:1009400081E0B15020408040E1F700C000002EEE71
:1009500072C09FE7A8E3B1E09150A040B040E1F73A
:1009600007C02FE788E391E0215080409040E1F7F5
:1009700000C000002AEF5FC0AFE7B8E321E0A1505C
:10098000B0402040E1F7F4CF1C8B5AC01B8B58C0FD
:100990008FE798E3A1E081509040A040E1F700C0CC
:1009A00000002E8D48C088A190E0FC01ED5EF109A9
:1009B000E331F10508F03EC0E45DFF4F099489A1E1
:1009C0008A8F198F3DC089A1837021F089A1888FFA
:1009D0001F8B36C02FE788E391E021508040904084
:1009E000E1F700C00000288D26C089A18E8B1D8BE9
:1009F00027C0AFE7B8E321E0A150B0402040E1F7C5
:100A000017C08FE798E3A1E081509040A040E1F744
:100A10000FC0BFE728E381E0B15020408040E1F7FC
:100A200007C09FE7A8E3B1E09150A040B040E1F7D4
:100A300000C000002FEF46E065E08BE290E05DD162
:100A400016DE89A188A340E062E088E290E0F3DD51
:100A500036CF0F931F93CF93DF93CDB7DEB7629757
:100A60000FB6F894DEBF0FBECDBF1A8A198A188A56
:100A70001F861E86DE0111965AE0FD0111925A95DD
:100A8000E9F71D861C861B861F8671E05F855A303C
:100A900098F51E861A8A5A89583250F5FC01508101
:100AA0005C87EC85F0E0062E02C0F595E7950A9488
:100AB000E2F7E170E98BEC85F0E0042E02C0F595D9
:100AC000E7950A94E2F7E170E88B5989513021F4F7
:100AD0005E85552349F00CC07E87EF8558898D01CE
:100AE0000E0F111DF80150835A895F5F5A8BD3CFC7
:100AF0005F855F5F5F87CACF81E08D871F868F85A7
:100B00008A3080F48F85FD01E80FF11D80818823F4
:100B100029F09D8581E0911180E08D878F858F5F21
:100B20008F87EDCF1F8681E090E04F854830B0F48D
:100B3000EF85F0E03196EA0FFB1F4081442351F02E
:100B40006B854F85FC0102C0EE0FFF1F4A95E2F74F
:100B50006E2B6B874F854F5F4F87E7CF8B85F901F2
:100B600080838D8562960FB6F894DEBF0FBECDBF31
:100B7000DF91CF911F910F9108957F928F929F9255
:100B8000AF92BF92CF92DF92EF92FF920F931F939B
:100B9000CF93DF93CDB7DEB760970FB6F894DEBF83
:100BA0000FBECDBF5C017B01742E1F861E86AE0179
:100BB0004F5F5F4F6A018BE0DA011D928A95E9F77A
:100BC0001D861C8681E08D871E8688248394912C47
:100BD0008E858A3008F040C0D501EC91F0E0022EFD
:100BE00002C0F595E7950A94E2F7E170EF879E85DC
:100BF0008F85F601E90FF11D80838F858823B1F081
:100C00009D8581E0911180E08D878E85882371F02C
:100C10008E85893058F43C858E858150F40102C060
:100C2000EE0FFF1F8A95E2F73E2B3C8741E0672DD0
:100C3000C701288B00DDFAE1FA95F1F700C040E02A
:100C4000672DC701F8DC4AE14A95F1F700C08E85AF
:100C50008F5F8E872889BCCF8C85D8018C938D853A
:100C600060960FB6F894DEBF0FBECDBFDF91CF9177
:100C70001F910F91FF90EF90DF90CF90BF90AF90BA
:100C80009F908F907F9008950F931F93CF93DF9342
:100C9000EC01162F042F41E0CEDC41E0602FCE01A5
:100CA000CADC8AE18A95F1F700C040E0612FCE01ED
:100CB000C2DC8AE18A95F1F700C041E0612FCE01E4
:100CC000BADC40E0602FCE01B6DC8AE18A95F1F70C
:100CD00000C040E0612FCE01AEDC8AE18A95F1F7D9
:100CE00000C041E0612FCE01A6DC41E0602FCE01C3
:100CF000DF91CF911F910F919ECCCF92DF92EF9217
:100D0000FF920F931F93CF93DF93CDB7DEB72F974B
:100D10000FB6F894DEBF0FBECDBF8C01D62EC42E09
:100D20001F861E86AE014F5F5F4F7A018BE0FA018E
:100D300011928A95E9F71D861C8681E08D871F86B2
:100D400030E08F858830E8F48F85A90102C0559581
:100D500047958A95E2F7CA0181708C878C85882334
:100D600029F09D8581E0911180E08D87EF85F0E08D
:100D700031968C85EE0DFF1D80838F858F5F8F8769
:100D8000E0CF19828D858A8781E08B871E868E85CC
:100D90008B3018F58E85882321F05DE05A95F1F7A8
:100DA00000008E85F701E80FF11D40816C2DC80110
:100DB00042DC8DE08A95F1F7000040E06D2DC8011E
:100DC0003ADC9AE19A95F1F700C041E06D2DC80137
:100DD00032DC8E858F5F8E87DACF2F960FB6F89430
:100DE000DEBF0FBECDBFDF91CF911F910F91FF905E
:100DF000EF90DF90CF9008959F92AF92BF92CF92E5
:100E0000DF92EF92FF920F931F93CF93DF93CDB7B3
:100E1000DEB761970FB6F894DEBF0FBECDBF6C0191
:100E20005B01942E188A1F861E861D86BE016F5F89
:100E30007F4F7B018BE0FB0111928A95E9F71C86BD
:100E40001E8631E010E041E08E858830D8F4EE85D2
:100E5000F0E031968E85B80102C0759567958A9548
:100E6000E2F7CB018170EE0DFF1D8083EE85F0E08F
:100E70003196EE0DFF1D8081811134278E858F5FA5
:100E80008E87E2CF3A8781E08B871E8611E08E85C0
:100E90008B3060F51D86188A8889843618F5F6012E
:100EA00080818C87EC85F0E0092C02C0F595E795F0
:100EB0000A94E2F7E170EF878F85813071F48D85B8
:100EC000811110C08E85F701E80FF11D4081622F5E
:100ED000C501298BB0DB298901C01D8788898F5FF7
:100EE000888BDACF8E858F5F8E87D1CF61960FB6D4
:100EF000F894DEBF0FBECDBFDF91CF911F910F9150
:100F0000FF90EF90DF90CF90BF90AF909F900895AB
:100F10000F931F93CF93DF93EC01162F042F41E023
:100F2000602F89DB40E0612FCE0185DB80EA8A9566
:100F3000F1F740E0602FCE017EDB8AE18A95F1F780
:100F400000C041E0612FCE01DF91CF911F910F9141
:100F500072CB882339F0E89A80916900826080938F
:100F6000690008951DBA10926900089510922B012E
:100F700010922A01109209011092080181E0E9DF24
:100F8000E8E6F0E0808184608083EDE6F0E0808137
:100F90008064808308951F920F920FB60F921124E0
:100FA0002F933F934F935F936F937F938F939F9371
:100FB000AF93BF93EF93FF93CF93DF931F92CDB780
:100FC000DEB71982F8949E012F5F3F4F47E062E041
:100FD00089E290E03EDD811112C0E0912B01EF5FCC
:100FE000EF71E0932B0180912A01F0E0E45DFE4F68
:100FF0008981808340E061E088E290E01CDB7894A6
:101000000F90DF91CF91FF91EF91BF91AF919F91A1
:101010008F917F916F915F914F913F912F910F90A1
:101020000FBE0F901F90189520912B0190912A01CF
:1010300081E0291301C080E00895E0912A01EF5F6B
:10104000EF71E0932A01F0E0E45DFE4F80810895A6
:101050001F920F920FB60F9211240F931F932F938D
:101060003F934F935F936F937F938F939F93AF9330
:10107000BF93EF93FF93CF93DF9300D000D0CDB712
:10108000DEB71C821B821A8282E0898389B186FBCB
:10109000882780F98C838C8181112CC041E062E02B
:1010A00088E290E0C8DADEDA8E010D5F1F4F26E09D
:1010B00045E06BE270E089E290E05FDD8983CDDAA4
:1010C00046E065E08BE290E0DFDD8981811111C0AF
:1010D000809109018F5F8F718A838A8180930901D2
:1010E0008A8180910801EA818B81F0E0E65FFE4F02
:1010F0008083BDDA0F900F900F900F90DF91CF910A
:10110000FF91EF91BF91AF919F918F917F916F91DF
:101110005F914F913F912F911F910F910F900FBEB3
:101120000F901F901895209109019091080181E07E
:10113000291301C080E00895E0910801EF5FEF718D
:10114000E0930801F0E0E65FFE4F80810895CF93C1
:10115000DF9300D000D0CDB7DEB78C831B821A821C
:10116000198280E88A839C818A81981728F5EC810E
:101170008BE0E89FF0011124E258FF4FE491E983EE
:101180001B829BE02B818981281798F48B81DB01DE
:10119000A80FB11DEC818B819E9FF0011124E80FF7
:1011A000F11DE158FF4FE491EC938B818F5F8B83AE
:1011B000E9CF898190E002C080E090E00F900F902D
:1011C0000F900F90DF91CF9108959093C500809379
:1011D000C400E1ECF0E080818861808386E0809348
:1011E000C2008081806880831092CE011092CF016E
:1011F00010924C0110924D0108951F920F920FB65C
:101200000F9211242F933F934F935F936F937F938C
:101210008F939F93AF93BF93EF93FF9340E060E072
:1012200088E290E008DA8091C600E091CF01EF5F9C
:10123000EF77E093CF019091CE01F0E0E053FE4FC5
:101240008083FF91EF91BF91AF919F918F917F919B
:101250006F915F914F913F912F910F900FBE0F9023
:101260001F9018951F920F920FB60F9211248F9313
:101270009F93EF93FF9390914D0180914C019817AC
:1012800069F0E0914C01EF5FEF77E0934C01F0E003
:10129000E25BFE4F80818093C60005C08091C10053
:1012A0008F7D8093C100FF91EF919F918F910F905F
:1012B0000FBE0F901F9018952091CF019091CE01F5
:1012C00081E0291301C080E00895E091CE01EF5F35
:1012D000EF77E093CE01F0E0E053FE4F8081089578
:0412E000F894FFCFB0
:0812E400190033006700CF0080
:00000001FF
