:10000000FEC2F4C717C316C315C34EC813C312C329
:1000100011C310C30FC30EC30DC30CC30BC30AC35C
:1000200009C308C322C957C905C304C303C302C314
:1000300001C300C3A5C495C4FDC4A2C4FBC464C469
:100040009FC4ADC4AEC4F6C4F5C4F4C4F3C4F2C4D2
:10005000F1C4F0C4EFC4A7C4BDC4DDC4E5C4BEC4CC
:10006000E3C4D9C4D4C4D7C4D6C4DEC4DDC4DCC49C
:10007000DBC4DAC4D9C4D8C4D7C4CDC4CCC400004E
:1000800000000000000000000006141CF01CF0142A
:100090000000000005E01FE0F01F00000000000568
:1000A000E02FE0F02F000000000005E07DE0F07D93
:1000B000000000000005E07AE0F07A000000000097
:1000C00005E06CE0F06C000000000005E069E0F085
:1000D0006900000000000366F066000000000000F8
:1000E00000030DF00D00000000000000035AF05A5C
:1000F000000000000000000358F05800000000005D
:100100000000061412F012F0140000000006145A49
:10011000F05AF0140000000005E071E0F0710000FA
:100120000000000305F005000000000000000306C9
:10013000F006000000000000000304F004000000CE
:1001400000000000030CF00C0000000000000003A1
:1001500003F00300000000000000030BF00B0000A0
:1001600000000000000383F0830000000000000096
:10017000030AF00A000000000000000301F0010083
:100180000000000000000309F0090000000000006A
:10019000000378F078000000000000000307F0077B
:1001A000000000000000000376F076000000000070
:1001B0000000031400000000000000000003F01421
:1001C000000000000000000001110000000000001D
:1001D00000000003F01100000000000000000329EF
:1001E000F02900000000000000065916F016F05932
:1001F00000000000065952F052F0590000000006BD
:100200005926F026F05900000000065925F025F087
:10021000590000000006592EF02EF0590000000091
:1002200006593DF03DF059000000000352F0520025
:10023000000000000000065946F046F0590000009A
:1002400000065945F045F0590000000006593EF0FF
:100250003EF05900000000065955F055F0590000D5
:1002600000000341F04100000000000000034EF0D8
:100270004E000000000000000349F04900000000AB
:10028000000000034AF04A0000000000000003459F
:10029000F045000000000000000316F0160000000A
:1002A00000000000031EF01E00000000000000031C
:1002B00026F026000000000000000325F0250000C5
:1002C0000000000000032EF02E00000000000000DF
:1002D0000336F03600000000000000033DF03D0052
:1002E000000000000000033EF03E0000000000009F
:1002F000000346F0460000000000000006594CF0E4
:100300004CF05900000000034CF04C0000000000CD
:100310000000065941F041F059000000000355F07B
:100320005500000000000000065949F049F059004E
:1003300000000006594AF04AF05900000000061279
:100340001EF01EF0120000000006121CF01CF0123D
:1003500000000000061232F032F012000000000629
:100360001221F021F01200000000061223F023F009
:100370001200000000061224F024F0120000000019
:1003800006122BF02BF01200000000061234F0349D
:10039000F01200000000061233F033F012000000EB
:1003A00000061243F043F0120000000006123BF07A
:1003B0003BF01200000000061242F042F012000072
:1003C000000006124BF04BF0120000000006123A3B
:1003D000F03AF01200000000061231F031F0120085
:1003E000000000061244F044F01200000000061263
:1003F0004DF04DF01200000000061215F015F0123D
:100400000000000006122DF02DF012000000000682
:10041000121BF01BF0120000000006122CF02CF052
:10042000120000000006123CF03CF0120000000038
:1004300006122AF02AF0120000000006121DF01D1C
:10044000F01200000000061222F022F0120000005C
:1004500000061235F035F0120000000006121AF006
:100460001AF012000000000354F0540000000000D5
:100470000000035DF05D00000000000000035BF081
:100480005B00000000000000061236F036F012009B
:1004900000000006124EF04EF0120000000006129E
:1004A0000EF00EF01200000000031CF01C00000013
:1004B000000000000332F0320000000000000003E2
:1004C00021F021000000000000000323F0230000C1
:1004D00000000000000324F02400000000000000E1
:1004E000032BF02B000000000000000334F0340068
:1004F0000000000000000333F033000000000000A3
:10050000000343F04300000000000000033BF03B09
:10051000000000000000000342F042000000000064
:100520000000034BF04B00000000000000033AF015
:100530003A000000000000000331F031000000002C
:100540000000000344F04400000000000000034DE0
:10055000F04D000000000000000315F01500000041
:1005600000000000032DF02D00000000000000033B
:100570001BF01B00000000000000032CF02C00000A
:100580000000000000033CF03C0000000000000000
:10059000032AF02A00000000000000031DF01D00E7
:1005A0000000000000000322F02200000000000014
:1005B000000335F03500000000000000031AF01AB7
:1005C00000000000000000061254F054F012000079
:1005D000000006125DF05DF0120000000006125BE4
:1005E000F05BF01200000000030EF00E00000000AF
:1005F00000000005E071E0F071000000000011242F
:100600001FBECFEFD4E0DEBFCDBF11E0A0E0B1E070
:10061000E8E0F4E102C005900D92A830B107D9F7E7
:1006200012E0A8E0B1E001C01D92A035B107E1F7EA
:1006300038D0E8C6E5CCFC01442359F0208181E0A4
:1006400090E002C0880F991F6A95E2F7282B20835B
:100650000895208181E090E002C0880F991F6A957B
:10066000E2F78095822380830895F89480E68AB922
:100670008BB90895F89480E28AB98BB90895F894FB
:100680001AB81BB878940895F89484E88AB98BB99D
:100690000895F89480E88AB98BB908958FE087B9F6
:1006A0000895EF92FF920F931F93DF93CF93CDB7EF
:1006B000DEB7A3970FB6F894DEBF0FBECDBFDE0145
:1006C0005296E0E0F1E088E001900D928150E1F770
:1006D00019821A821B821C821D821E821F8218862A
:1006E00019861A861B861C861D861E861F86188AFA
:1006F000198A3AE1E32EF12CEC0EFD1EC70160E0F1
:1007000070E04AE050E077D68FE087B985B18295F6
:100710008695869583708983898190E0880F991FDB
:10072000FE013196E80FF91F8189928986D549D457
:1007300018B8AADF8BE290E062E047E013D4A9DFAB
:1007400089E290E06BE270E042E027E00FEF77D3C0
:100750008FEF8F838FEF99E6A8E181509040A04002
:10076000E1F700C0000081DF8BE290E065E046E049
:100770002AEFDDD287E088B9789488E290E062E0E1
:1007800040E059DF7CDF98858D81981708F481C09F
:100790008B858130A9F478DF8BE290E062E047E05E
:1007A000E1D377DF89E290E06BE270E042E027E09E
:1007B0000DEE45D364DF8DEE8F838B858F5F8B8746
:1007C0005ED4882309F456C081E0898761D48A8386
:1007D0008A818A3F71F08B3F28F48823B1F18A3AED
:1007E000D1F533C08E3F09F18F3F78F58C3F99F5F5
:1007F0002CC08B858230A1F447DF8BE290E062E071
:1008000047E0B0D346DF0A8589E290E06BE270E012
:1008100042E027E014D38A858F838B858F5F8B8797
:100820008B85833009F51B861FC02EDF8BE290E09D
:1008300062E047E097D32DDF0F8189E290E06BE221
:1008400070E042E027E0FBD20FC08B85833061F47B
:1008500082E08B8709C009DF2A818BE290E065E0A6
:1008600046E065D28A818E830ADF88E290E061E00B
:1008700041E0E1DE80D5882361F086D58A838A81D4
:10088000B70192D48D83188688E290E060E041E061
:10089000D2DE98858D81981708F0D5C070D4882352
:1008A00009F0D1C08FE798E3A1E081509040A040CB
:1008B000E1F700C00000D9DE8885F701E80FF11DDF
:1008C00020818BE290E065E046E031D28885F70137
:1008D000E80FF11D80818E8388858F5F8887CFDE4A
:1008E000B2C056D48B83C1DE8B8187FF67C08B81FA
:1008F00090E08D5E90408231910508F09BC0865E4D
:100900009F4F8F939F9308958FE798E3A1E08150C5
:100910009040A040E1F700C000008BE290E065E06D
:1009200046E02AEF04D28FE798E3A1E0815090409F
:10093000A040E1F700C000008BE290E065E046E0F7
:100940002BEAF5D18FE798E3A1E081509040A040D9
:10095000E1F700C000008BE290E065E046E023E8AC
:1009600068C08FE798E3A1E081509040A040E1F794
:1009700000C000008BE290E065E046E02EEE59C03A
:100980008FE798E3A1E081509040A040E1F700C0DC
:1009900000008BE290E065E046E02AEF4AC0188B49
:1009A00049C0198B47C08FE798E3A1E08150904080
:1009B000A040E1F700C000002E8124C08C8190E0AF
:1009C0008D5E90408331910578F5845D9F4F8F93C4
:1009D0009F9308958B818A871B872CC08B8190E021
:1009E00083709070009721F08B818C871D8722C0C7
:1009F0008FE798E3A1E081509040A040E1F700C06C
:100A000000002C858BE290E065E046E012C08B810F
:100A10008E871F870FC08FE798E3A1E08150904039
:100A2000A040E1F700C000008BE290E065E046E006
:100A30002FEF7DD124DE8B818C8388E290E062E011
:100A400040E0F9DD01C011E09AD3882309F049CFD5
:100A50009ACEAF92BF92CF92DF92EF92FF920F9316
:100A60001F93DF93CF93CDB7DEB762970FB6F8949D
:100A7000DEBF0FBECDBF6C01B62EA42E7901198248
:100A80001A821B821C821D828E01075F1F4FC801C4
:100A900060E070E04AE050E0AED41E821F8218860B
:100AA0001C8221E031C01D82198228C0F60180819C
:100AB0008F838F8190E00B2C02C0959587950A94C7
:100AC000E2F781708A838F8190E00A2C02C09595AD
:100AD00087950A94E2F781708B838A81813021F4B3
:100AE0008D81882341F00DC02D839C818B81F8017D
:100AF000E90FF11D808389818F5F89838981883225
:100B0000A8F28C818F5F8C838C818A3060F281E0C7
:100B10008E831C82CE0109960FC02C81FC01E20F4E
:100B2000F11D2081222329F03E8121E0311120E0B6
:100B30002E832C812F5F2C832C812A3070F31C8212
:100B40009E01275F3F4F81E090E015C0EC81F0E00F
:100B50003196E20FF31F4081442351F068854C81A8
:100B6000FC0102C0EE0FFF1F4A95E2F76E2B68876B
:100B70004C814F5F4C834C81483040F38885F701AE
:100B800080838E8162960FB6F894DEBF0FBECDBF14
:100B9000CF91DF911F910F91FF90EF90DF90CF9059
:100BA000BF90AF9008956F927F928F929F92AF9275
:100BB000BF92CF92DF92EF92FF920F931F93DF933A
:100BC000CF93CDB7DEB72F970FB6F894DEBF0FBE29
:100BD000CDBF3C016B01B42EA22E480119821A82AE
:100BE0008E010B5F1F4FC80160E070E04BE050E0EA
:100BF00002D41B821C8281E08B831A82780101E07F
:100C000010E03EC0F301808190E00A2C02C095956F
:100C100087950A94E2F7817089839A818981F70127
:100C2000E90FF11D808389818823B9F09B8181E0E0
:100C3000911180E08B838A81882379F08A818930C1
:100C400060F42C818A8190E00197A80102C0440FD2
:100C5000551F8A95E2F7242B2C83C6016B2D41E0AA
:100C6000EADC5AE15A95F1F700C0C6016B2D40E06D
:100C7000E2DC8AE18A95F1F700C08A818F5F8A837E
:100C80008A818A3008F4BECF8C81F40180838B8105
:100C90002F960FB6F894DEBF0FBECDBFCF91DF9178
:100CA0001F910F91FF90EF90DF90CF90BF90AF908A
:100CB0009F908F907F906F9008950F931F93CF9385
:100CC000DF93EC01162F042F41E0B5DCCE01602F3D
:100CD00041E0B1DC8AE18A95F1F700C0CE01612FD5
:100CE00040E0A9DC8AE18A95F1F700C0CE01612FCE
:100CF00041E0A1DCCE01602F40E09DDC8AE18A95D5
:100D0000F1F700C0CE01612F40E095DC8AE18A95C1
:100D1000F1F700C0CE01612F41E08DDCCE01602FE4
:100D200041E089DCDF91CF911F910F910895CF921F
:100D3000DF92EF92FF920F931F93DF93CF93CDB784
:100D4000DEB760970FB6F894DEBF0FBECDBF8C0143
:100D5000D62EC42E19821A8295E0E92EF12CEC0EC3
:100D6000FD1EC70160E070E04BE050E0288B43D3EC
:100D70001B821C8281E08B831982288930E01CC091
:100D80008981A90102C0559547958A95E2F7CA0164
:100D900081708C838C81882329F09B8181E0911163
:100DA00080E08B83E981F0E031968C81EE0DFF1DB0
:100DB000808389818F5F89838981883008F31D82D0
:100DC0008B818E8781E08F871A8285E0E82EF12C57
:100DD000EC0EFD1E22C08A81882321F05DE05A9529
:100DE000F1F700008A81F701E80FF11D4081C80189
:100DF0006C2D21DC8DE08A95F1F70000C8016D2D86
:100E000040E019DC4AE14A95F1F700C0C8016D2DB8
:100E100041E011DC8A818F5F8A838A818B30D8F22E
:100E200060960FB6F894DEBF0FBECDBFCF91DF91B5
:100E30001F910F91FF90EF90DF90CF9008958F92C8
:100E40009F92AF92BF92CF92DF92EF92FF920F9359
:100E50001F93DF93CF93CDB7DEB760970FB6F894AB
:100E6000DEBF0FBECDBF5C016B01842E922E1982B6
:100E70001A821B821C8226E0E22EF12CEC0EFD1E53
:100E8000C70160E070E04BE050E0B5D21D821B82EC
:100E900021E010E031E01AC0EB81F0E031968B8167
:100EA000A80102C0559547958A95E2F7CA0181705D
:100EB000EE0DFF1D8083EB81F0E03196EE0DFF1DFE
:100EC0008081811123278B818F5F8B838B81883079
:100ED00018F32F8781E0888B1B828E010A5F1F4FDA
:100EE000EE24E39429C01C82198220C0F501808180
:100EF0008D838D8190E0082C02C0959587950A948A
:100F0000E2F781708A838A81813061F48C81882341
:100F100081F48B81F801E80FF11D4081C601692D34
:100F20008ADB01C0EC8289818F5F89838981843665
:100F3000E8F28B818F5F8B838B818B30A0F2609680
:100F40000FB6F894DEBF0FBECDBFCF91DF911F91DA
:100F50000F91FF90EF90DF90CF90BF90AF909F9058
:100F60008F9008950F931F93CF93DF93EC01162F6B
:100F7000042F642F41E05FDBCE01612F40E05BDB9B
:100F800080EA8A95F1F7CE01602F40E054DB8AE1D8
:100F90008A95F1F700C0CE01612F41E04CDBDF9173
:100FA000CF911F910F910895882339F0E89A80918D
:100FB000690082608093690008951DBA10926900EB
:100FC000089510924B0110922A011092290110925B
:100FD000080181E0E9DFE8E6F0E080818460808359
:100FE000EDE6F0E080818064808308951F920F9287
:100FF0000FB60F9211242F933F934F935F936F93EC
:101000007F938F939F93AF93BF93EF93FF93DF9360
:10101000CF930F92CDB7DEB71982F89489E290E0B2
:1010200062E047E09E012F5F3F4F13DD882391F47C
:10103000E0914B01EF5FEF71E0934B0180912A014A
:10104000F0E0E55DFE4F8981808388E290E061E019
:1010500040E0F1DA78940F90CF91DF91FF91EF911A
:10106000BF91AF919F918F917F916F915F914F91C0
:101070003F912F910F900FBE0F901F9018952091C8
:101080004B0190912A0181E0291709F480E008952D
:1010900080912A018F5F8F7180932A01EBE2F1E04A
:1010A000E80FF11D808108951F920F920FB60F92E5
:1010B00011240F931F932F933F934F935F936F933D
:1010C0007F938F939F93AF93BF93EF93FF93DF93A0
:1010D000CF9300D000D0CDB7DEB719821A821B8221
:1010E00082E08C8389B1829586958695817089830B
:1010F0008981882361F588E290E062E041E09BDA33
:10110000B9DA89E290E06BE270E045E026E08E011A
:101110000E5F1F4F48DD8C83A8DA8BE290E065E01C
:1011200046E0CBDD8C81882389F4809129018F5F93
:101130008F718B838B81809329018B818091080132
:10114000EB818A81F0E0E75FFE4F808398DA249696
:10115000DEBFCDBFCF91DF91FF91EF91BF91AF91F6
:101160009F918F917F916F915F914F913F912F91BF
:101170001F910F910F900FBE0F901F901895209107
:1011800029019091080181E0291709F480E0089570
:10119000809108018F5F8F7180930801E9E0F1E091
:1011A000E80FF11D80810895DF93CF9300D000D028
:1011B000CDB7DEB78C8319821A821B8280E88A83BE
:1011C0009C818A81981778F52C8130E08BE090E043
:1011D000289FF001299FF00D389FF00D1124E2584F
:1011E000FF4FE491EB83198217C02981DB01A20F25
:1011F000B11D2C81498130E0289FF001299FF00D1D
:10120000389FF00D1124E40FF11DE158FF4FE491D8
:10121000EC9329812F5F298339812B81321728F3A1
:101220002B8130E002C020E030E0C9010F900F9028
:101230000F900F90CF91DF9108959093C500809308
:10124000C400E1ECF0E080818861808386E08093D7
:10125000C20080818068808310924C011092CD0181
:101260001092CF011092CE0108951F920F920FB6E7
:101270000F9211242F933F934F935F936F937F931C
:101280008F939F93AF93BF93EF93FF9388E290E088
:1012900060E040E0D0D99091C6008091CD018F5F91
:1012A0008F778093CD0120914C01EDE4F1E0E80FC0
:1012B000F11D9083FF91EF91BF91AF919F918F911D
:1012C0007F916F915F914F913F912F910F900FBE42
:1012D0000F901F9018951F920F920FB60F92112426
:1012E0008F939F93EF93FF939091CE018091CF01C5
:1012F000981769F0E091CF01EF5FEF77E093CF01AE
:10130000F0E0E053FE4F80818093C60005C08091DD
:10131000C1008F7D8093C100FF91EF919F918F91CC
:101320000F900FBE0F901F9018959091CD01809156
:101330004C019817D1F3E0914C01EF5FEF77E09308
:101340004C01F0E0E35BFE4F808108959091CE0167
:101350009F5F9F772091CF019217E1F3E92FF0E093
:10136000E053FE4F80839093CE018091C100806254
:101370008093C10008952091CD0190914C0181E0AE
:10138000291709F480E0089580914C018F5F8F77D1
:1013900080934C01EDE4F1E0E80FF11D80810895A8
:1013A0008091C1008F778093C1008091C00087FF3A
:1013B000FCCF8091C6009091C10090689093C100CD
:1013C00008959091C00095FFFCCF8093C6000895CA
:1013D000EF92FF92CF93DF93E82EE7017E01F92E83
:1013E000E70101C0EEDF89918823E1F7DF91CF911A
:1013F000FF90EF900895DC0101C06D934150504083
:08140000E0F70895F894FFCF16
:08140800190033006700CF005A
:00000001FF
