S00F0000434F4E3233324B2E7372656353
S1130000FEC27BC817C316C315C3D4C813C312C317
S113001011C310C30FC30EC30DC30CC30BC30AC358
S113002009C308C39FC9D3C905C304C303C302C317
S113003001C300C3AAC499C47DC5B7C47BC567C442
S1130040C4C4D3C4D4C476C575C574C573C572C5D8
S113005071C570C56FC5CDC408C5F7C465C509C5EC
S113006063C5E3C41DC520C52FC55EC55DC55CC59C
S11300705BC55AC559C558C557C536C545C50000E1
S113008000000000000000000006141CF01CF01426
S11300900000000005E01FE0F01F00000000000564
S11300A0E02FE0F02F000000000005E07DE0F07D8F
S11300B0000000000005E07AE0F07A000000000093
S11300C005E06CE0F06C000000000005E069E0F081
S11300D06900000000000366F066000000000000F4
S11300E000030DF00D00000000000000035AF05A58
S11300F0000000000000000358F058000000000059
S11301000000061412F012F0140000000006145A45
S1130110F05AF0140000000005E071E0F0710000F6
S11301200000000305F005000000000000000306C5
S1130130F006000000000000000304F004000000CA
S113014000000000030CF00C00000000000000039D
S113015003F00300000000000000030BF00B00009C
S113016000000000000383F0830000000000000092
S1130170030AF00A000000000000000301F001007F
S11301800000000000000309F00900000000000066
S1130190000378F078000000000000000307F00777
S11301A0000000000000000376F07600000000006C
S11301B00000031400000000000000000003F0141D
S11301C00000000000000000011100000000000019
S11301D000000003F01100000000000000000329EB
S11301E0F02900000000000000065916F016F0592E
S11301F000000000065952F052F0590000000006B9
S11302005926F026F05900000000065925F025F083
S1130210590000000006592EF02EF059000000008D
S113022006593DF03DF059000000000352F0520021
S1130230000000000000065946F046F05900000096
S113024000065945F045F0590000000006593EF0FB
S11302503EF05900000000065955F055F0590000D1
S113026000000341F04100000000000000034EF0D4
S11302704E000000000000000349F04900000000A7
S1130280000000034AF04A0000000000000003459B
S1130290F045000000000000000316F01600000006
S11302A000000000031EF01E000000000000000318
S11302B026F026000000000000000325F0250000C1
S11302C00000000000032EF02E00000000000000DB
S11302D00336F03600000000000000033DF03D004E
S11302E0000000000000033EF03E0000000000009B
S11302F0000346F0460000000000000006594CF0E0
S11303004CF05900000000034CF04C0000000000C9
S11303100000065941F041F059000000000355F077
S11303205500000000000000065949F049F059004A
S113033000000006594AF04AF05900000000061275
S11303401EF01EF0120000000006121CF01CF01239
S113035000000000061232F032F012000000000625
S11303601221F021F01200000000061223F023F005
S11303701200000000061224F024F0120000000015
S113038006122BF02BF01200000000061234F03499
S1130390F01200000000061233F033F012000000E7
S11303A000061243F043F0120000000006123BF076
S11303B03BF01200000000061242F042F01200006E
S11303C0000006124BF04BF0120000000006123A37
S11303D0F03AF01200000000061231F031F0120081
S11303E0000000061244F044F0120000000006125F
S11303F04DF04DF01200000000061215F015F01239
S11304000000000006122DF02DF01200000000067E
S1130410121BF01BF0120000000006122CF02CF04E
S1130420120000000006123CF03CF0120000000034
S113043006122AF02AF0120000000006121DF01D18
S1130440F01200000000061222F022F01200000058
S113045000061235F035F0120000000006121AF002
S11304601AF012000000000354F0540000000000D1
S11304700000035DF05D00000000000000035BF07D
S11304805B00000000000000061236F036F0120097
S113049000000006124EF04EF0120000000006129A
S11304A00EF00EF01200000000031CF01C0000000F
S11304B0000000000332F0320000000000000003DE
S11304C021F021000000000000000323F0230000BD
S11304D000000000000324F02400000000000000DD
S11304E0032BF02B000000000000000334F0340064
S11304F00000000000000333F0330000000000009F
S1130500000343F04300000000000000033BF03B05
S1130510000000000000000342F042000000000060
S11305200000034BF04B00000000000000033AF011
S11305303A000000000000000331F0310000000028
S11305400000000344F04400000000000000034DDC
S1130550F04D000000000000000315F0150000003D
S113056000000000032DF02D000000000000000337
S11305701BF01B00000000000000032CF02C000006
S11305800000000000033CF03C00000000000000FC
S1130590032AF02A00000000000000031DF01D00E3
S11305A00000000000000322F02200000000000010
S11305B0000335F03500000000000000031AF01AB3
S11305C000000000000000061254F054F012000075
S11305D0000006125DF05DF0120000000006125BE0
S11305E0F05BF01200000000030EF00E00000000AB
S11305F000000005E071E0F071000000000011242B
S11306001FBECFEFD4E0DEBFCDBF11E0A0E0B1E06C
S1130610EEE4F4E102C005900D92A830B107D9F7D9
S113062022E0A8E0B1E001C01D92A035B207E1F7D5
S11306303CD00BC7E5CC442379F0FC01408121E098
S113064030E0F90102C0EE0FFF1F6A95E2F7BF0127
S1130650642BFC0160830895FC01408121E030E0BB
S1130660F90102C0EE0FFF1F6A95E2F7BF01609522
S11306706423FC0160830895F89480E68AB98BB9F9
S11306800895F89480E28AB98BB90895F8941AB859
S11306901BB878940895F89484E88AB98BB90895BE
S11306A0F89480E88AB98BB90895CF93DF93CDB7D6
S11306B0DEB7A3970FB6F894DEBF0FBECDBF88E0B8
S11306C0E0E0F1E0DE01119601900D928A95E1F7E8
S11306D019861A861B861C861D861E861F86188A06
S11306E0198A1A8A1B8A1C8A1D8A1E8A1F8A188ED6
S11306F0198EFE017A968AE0DF011D928A95E9F748
S11307008FE087B985B182958695869583708987B0
S1130710E985F0E0EE0FFF1F81E090E08C0F9D1F54
S1130720E80FF91F8081918105D6D2D418B8B3DFC0
S113073047E062E08BE290E09CD4B2DF0FEF27E069
S113074042E06BE270E089E290E0F9D38FEF8F87AB
S11307509FEFA9E6B8E19150A040B040E1F700C096
S113076000008ADF2AEF46E065E08BE290E061D387
S113077087E088B9789440E062E088E290E05BDF4B
S113078085DF98898D85981708F481C08B8981301D
S1130790A9F481DF47E062E08BE290E06AD480DF75
S11307A00DEE27E042E06BE270E089E290E0C7D30F
S11307B06DDF8DEE8F878B898F5F8B8BE7D48823DA
S11307C009F454C081E0898BEAD48A878A858A3FF8
S11307D061F028F48823A9F18A3AC9F532C08E3F22
S11307E001F178F58C3F99F52CC08B898230A1F406
S11307F052DF47E062E08BE290E03BD451DF0A89AC
S113080027E042E06BE270E089E290E098D38A89C5
S11308108F878B898F5F8B8B8B89833009F51B8A3C
S11308201FC039DF47E062E08BE290E022D438DF7A
S11308300F8527E042E06BE270E089E290E07FD32D
S11308400FC08B89833061F482E08B8B09C014DF85
S11308502A8546E065E08BE290E0EBD28A858E87BC
S113086015DF41E061E088E290E0E5DEDAD5882337
S113087071F0E0D58A878A85BE01665E7F4F19D5FF
S11308808D87188A41E060E088E290E0D4DE9889A0
S11308908D85981738F5F9D4811124C02FE788E3A2
S11308A091E0215080409040E1F700C00000E4DE78
S11308B08889EAE1F0E0EC0FFD1FE80FF11D2081CB
S11308C046E065E08BE290E0B4D28889EAE1F0E0AA
S11308D0EC0FFD1FE80FF11D80818E8788898F5FE3
S11308E0888BD4DE11E02EC1D9D48B87C5DE8B85ED
S11308F088230CF08EC08B8590E0FC01ED5EF1093D
S1130900E231F10508F016C1E65EFF4F0994AFE746
S1130910B8E321E0A150B0402040E1F700C000005E
S11309202AEF46E065E08BE290E083D28FE798E31C
S1130930A1E081509040A040E1F700C000002BEA04
S113094046E065E08BE290E074D2BFE728E381E003
S1130950B15020408040E1F700C0000023E846E0A9
S113096065E08BE290E065D2E5C09FE7A8E3B1E0E3
S11309709150A040B040E1F700C000002EEE46E0E8
S113098065E08BE290E055D2D5C02FE788E391E093
S1130990215080409040E1F700C000002AEF46E07B
S11309A065E08BE290E045D2C5C0AFE7B8E321E053
S11309B0A150B0402040E1F700C000002AEF46E01B
S11309C065E08BE290E035D2B5C08FE798E3A1E013
S11309D081509040A040E1F700C000002AEF46E0BB
S11309E065E08BE290E025D2A5C0188FA3C0198FD3
S11309F0A1C0BFE728E381E0B15020408040E1F787
S1130A0000C000002E8546E065E08BE290E011D244
S1130A1091C08C8590E0FC01ED5EF109E331F105B4
S1130A2008F082C0E45DFF4F09949FE7A8E3B1E0BA
S1130A309150A040B040E1F700C000002FEF46E025
S1130A4065E08BE290E0F5D175C02FE788E391E093
S1130A50215080409040E1F700C000002FEF46E0B5
S1130A6065E08BE290E0E5D165C08B858A8B1B8BBA
S1130A7061C08B85837021F08B858C8B1D8B5AC054
S1130A80AFE7B8E321E0A150B0402040E1F700C057
S1130A9000002C8946E065E08BE290E0CAD14AC0B0
S1130AA08B858E8B1F8B46C08FE798E3A1E0815026
S1130AB09040A040E1F700C000002FEF46E065E061
S1130AC08BE290E0B6D136C0BFE728E381E0B150B5
S1130AD020408040E1F700C000002FEF46E065E0D1
S1130AE08BE290E0A6D126C09FE7A8E3B1E0915045
S1130AF0A040B040E1F700C000002FEF46E065E001
S1130B008BE290E096D116C02FE788E391E0215064
S1130B1080409040E1F700C000002FEF46E065E020
S1130B208BE290E086D106C02FEF46E065E08BE2D1
S1130B3090E07FD1ABDD8B858C8740E062E088E27A
S1130B4090E079DDA2D38111CFCE1BCE0F931F93FA
S1130B50CF93DF93CDB7DEB762970FB6F894DEBFBD
S1130B600FBECDBFDC0119821A821B821C821D823A
S1130B708E010A5F1F4F8AE0F80111928A95E9F706
S1130B80188A198A1A8A1C828C818A30C8F551E025
S1130B901D8219828981883268F58C91898BE98953
S1130BA0F0E0062E02C0F595E7950A94E2F7E170AD
S1130BB0EA83E989F0E0042E02C0F595E7950A94EA
S1130BC0E2F7E170EB838A81813021F48D818823FF
S1130BD059F010C05D839C818B81E6E0F0E0EC0F5E
S1130BE0FD1FE90FF11D808389818F5F89838981CE
S1130BF0883298F28C818F5F8C838C818A3040F2AA
S1130C0081E0888B1C828C818A30B8F441E050E00A
S1130C108C81E6E0F0E0EC0FFD1FE80FF11D808110
S1130C20882329F09889842F9111852F888B8C81B2
S1130C308F5F8C838C818A3058F31C828C8188303E
S1130C40F8F441E050E0EC81F0E0319686E090E089
S1130C508C0F9D1FE80FF91F8081882359F08C8128
S1130C606A89FA0102C0EE0FFF1F8A95E2F7CF01ED
S1130C70862B8A8B8C818F5F8C838C81883018F3D0
S1130C808A89F9018083888962960FB6F894DEBF59
S1130C900FBECDBFDF91CF911F910F9108956F9239
S1130CA07F928F929F92AF92BF92CF92DF92EF92F8
S1130CB0FF920F931F93CF93DF93CDB7DEB72F9798
S1130CC00FB6F894DEBF0FBECDBF6C017B01942E2E
S1130CD0822E19821A82FE0133968BE0DF011D9267
S1130CE08A95E9F71E861F8681E08E871A828A819B
S1130CF08A3008F04BC077247394AA24A394B12CAF
S1130D00612CF601808190E0082C02C095958795AE
S1130D100A94E2F7817089839A818981E3E0F0E0A3
S1130D20EC0FFD1FE90FF11D808389818823B9F041
S1130D309E85872D9111862D8E878A81882379F04F
S1130D408A81893060F48A812F858150A50102C08F
S1130D50440F551F8A95E2F7CA01822B8F87472DCE
S1130D60692DC70168DC5AE15A95F1F700C0462D98
S1130D70692DC70160DC8AE18A95F1F700C08A8198
S1130D808F5F8A838A818A3008F4BBCF8F85D8012C
S1130D908C938E852F960FB6F894DEBF0FBECDBF11
S1130DA0DF91CF911F910F91FF90EF90DF90CF9043
S1130DB0BF90AF909F908F907F906F9008950F9306
S1130DC01F93CF93DF93EC01162F042F41E033DC04
S1130DD041E0602FCE012FDC8AE18A95F1F700C053
S1130DE040E0612FCE0127DC8AE18A95F1F700C04B
S1130DF041E0612FCE011FDC40E0602FCE011BDCFF
S1130E008AE18A95F1F700C040E0612FCE0113DC3E
S1130E108AE18A95F1F700C041E0612FCE010BDC35
S1130E2041E0602FCE0107DCDF91CF911F910F913C
S1130E300895EF92FF920F931F93CF93DF93CDB753
S1130E40DEB72F970FB6F894DEBF0FBECDBF8C016F
S1130E50F62EE42E19821A82FE0133968BE0DF010E
S1130E601D928A95E9F71E861F8681E08E87198276
S1130E708981883030F530E041E050E08981B90162
S1130E8002C0759567958A95E2F7CB0181708F87CB
S1130E908F85882329F09E85842F9111852F8E8735
S1130EA0E981F0E031968F85A3E0B0E0AC0FBD1F7F
S1130EB0EA0FFB1F808389818F5F89838981883052
S1130EC0E8F21B828E858C8781E08D871A828A8165
S1130ED08B3040F58A81882321F0BDE0BA95F1F783
S1130EE000008A81E3E0F0E0EC0FFD1FE80FF11D44
S1130EF040816E2DC8019FDB6DE06A95F1F700001B
S1130F0040E06F2DC80197DB7AE17A95F1F700C0D4
S1130F1041E06F2DC8018FDB8A818F5F8A838A81CC
S1130F208B30C0F22F960FB6F894DEBF0FBECDBF44
S1130F30DF91CF911F910F91FF90EF900895BF9291
S1130F40CF92DF92EF92FF920F931F93CF93DF9391
S1130F50CDB7DEB760970FB6F894DEBF0FBECDBF36
S1130F607C016B01142FB22E19821A821B821C82FF
S1130F70FE0135969BE0DF011D929A95E9F7188AE8
S1130F801B829B81983058F541E0802F90E051E01E
S1130F9060E0EB81F0E031962B81DC0102C0B59575
S1130FA0A7952A95E2F79D012170A5E0B0E0AC0F6A
S1130FB0BD1FEA0FFB1F2083EB81F0E03196EA0F9F
S1130FC0FB1F2081222321F0252F4111262F422FA0
S1130FD02B812F5F2B832B812830D8F201C041E075
S1130FE04E8781E08F871B828B818B3090F501E0E7
S1130FF01C8219828981843630F5F7018081888BBF
S1131000E889F0E0012E02C0F595E7950A94E2F72D
S1131010E170EA838A81813079F48C81811113C073
S11310208B81E5E0F0E0EC0FFD1FE80FF11D40813E
S11310306B2DC60100DB01C00C8389818F5F89831E
S113104089818436D0F28B818F5F8B838B818B3047
S113105078F260960FB6F894DEBF0FBECDBFDF9175
S1131060CF911F910F91FF90EF90DF90CF90BF90A1
S113107008950F931F93CF93DF93EC01162F042F42
S113108041E0602FD8DA40E0612FCE01D4DA80EA63
S11310908A95F1F740E0602FCE01CDDA8AE18A9596
S11310A0F1F700C041E0612FCE01C5DADF91CF91A5
S11310B01F910F910895882339F0E89AE9E6F0E04A
S11310C080818260808308951DBA1092690008951A
S11310D010922B0110922A0110920901109208011A
S11310E081E0E9DFE8E6F0E0808184608083EDE67A
S11310F0F0E080818064808308951F920F920FB680
S11311000F9211242F933F934F935F936F937F9389
S11311108F939F93AF93BF93EF93FF93CF93DF93FB
S11311201F92CDB7DEB71982F8949E012F5F3F4F0F
S113113047E062E089E290E009DD811112C0E091AC
S11311402B01EF5FEF71E0932B0180912A01F0E016
S1131150E45DFE4F8981808340E061E088E290E0B5
S11311606ADA78940F90DF91CF91FF91EF91BF915C
S1131170AF919F918F917F916F915F914F913F912B
S11311802F910F900FBE0F901F90189520912B0157
S113119090912A0181E0291301C080E00895E09133
S11311A02A01EF5FEF71E0932A01F0E0E45DFE4F66
S11311B0808108951F920F920FB60F9211240F93FE
S11311C01F932F933F934F935F936F937F938F93CB
S11311D09F93AF93BF93EF93FF93CF93DF9300D08D
S11311E000D0CDB7DEB719821A821B8282E08C83CD
S11311F089B186FB882780F98983898181112CC074
S113120041E062E088E290E016DA3BDA8E010E5F9C
S11312101F4F26E045E06BE270E089E290E03FDD9D
S11312208C832ADA46E065E08BE290E0C8DD8C81AD
S1131230811111C0809109018F5F8F718B838B8124
S1131240809309018B8180910801EB818A81F0E010
S1131250E65FFE4F80831ADA0F900F900F900F9085
S1131260DF91CF91FF91EF91BF91AF919F918F91BA
S11312707F916F915F914F913F912F911F910F91AA
S11312800F900FBE0F901F90189520910901909117
S1131290080181E0291301C080E00895E09108016C
S11312A0EF5FEF71E0930801F0E0E65FFE4F8081AD
S11312B00895CF93DF9300D000D0CDB7DEB78C83F1
S11312C019821A821B8280E88A839C818A819817FA
S11312D040F5EC818BE0E89FF0011124E258FF4FC8
S11312E0E491EB83198299818B819817B8F42BE0F0
S11312F08981DB01A80FB11D8C81E981F0E0289F71
S1131300E00DF11D1124E158FF4FE491EC93898124
S11313108F5F898399818B81981750F38B8190E03B
S113132002C080E090E00F900F900F900F90DF913B
S1131330CF9108959093C5008093C400E1ECF0E050
S113134080818861808386E08093C2008081806888
S113135080831092CE011092CF0110924C01109212
S11313604D0108951F920F920FB60F9211242F93DF
S11313703F934F935F936F937F938F939F93AF9319
S1131380BF93EF93FF9340E060E088E290E053D98D
S11313908091C600E091CF01EF5FEF77E093CF013A
S11313A09091CE01F0E0E053FE4F8083FF91EF91E6
S11313B0BF91AF919F918F917F916F915F914F9169
S11313C03F912F910F900FBE0F901F9018951F9271
S11313D00F920FB60F9211248F939F93EF93FF9365
S11313E090914D0180914C01981769F0E0914C0166
S11313F0EF5FEF77E0934C01F0E0E25BFE4F80811A
S11314008093C60005C0E1ECF0E080818F7D80838D
S1131410FF91EF919F918F910F900FBE0F901F90AE
S113142018952091CF019091CE0181E0291301C03C
S113143080E00895E091CE01EF5FEF77E093CE0175
S1111440F0E0E053FE4F80810895F894FFCF52
S10B144E190033006700CF0010
S9030000FC
